:020000040800F2
:1000000000280020550D0008F90C0008FF0C00081E
:10001000050D00080B0D0008110D00080000000080
:10002000000000000000000000000000170D0008A4
:10003000230D0008000000002F0D00083B0D0008F4
:100040009D0D00089D0D00089D0D00089D0D0008E8
:100050009D0D00089D0D00089D0D00089D0D0008D8
:100060009D0D00089D0D00089D0D00089D0D0008C8
:100070009D0D00089D0D00089D0D00089D0D0008B8
:100080009D0D00089D0D00089D0D00089D0D0008A8
:100090009D0D00089D0D00089D0D00089D0D000898
:1000A0009D0D00089D0D00089D0D00089D0D000888
:1000B0009D0D00089D0D0008000000009D0D00082A
:1000C0009D0D000800000000000000009D0D0008CC
:1000D000000000009D0D00089D0D000800000000BC
:1000E0009D0D00089D0D00089D0D000800000000FA
:1000F0000000000000000000000000000000000000
:0C01000000000000000000005FF808F1A3
:10010C0010B5054C237833B9044B13B10448AFF345
:10011C0000800123237010BD180000200000000097
:10012C00901B000808B5034B1BB103490348AFF300
:10013C00008008BD000000001C000020901B00087F
:10014C0080B500AF002000F0ABF80346002B0BD0BD
:10015C00064B1B680133054A1360044B1B68042BC8
:10016C0002DD024B01221A6000BF80BD040000209A
:10017C0080B582B000AF00237B607AE0414A7B6897
:10018C0013441978404A7B6813440A461A707B68FA
:10019C00002B08D07B68012B02D14FF4804304E084
:1001AC004FF4004301E04FF400531946374801F077
:1001BC00B1F803461946334A7B6813440A461A7051
:1001CC00304A7B6813441A782F497B680B441B78A0
:1001DC009A424BD12E4A7B6813441A7829497B6882
:1001EC000B441B789A4213D0264A7B681344197827
:1001FC00274A7B6813440A461A70254A7B681344C5
:10020C001B78002B04D1234A7B68134401221A70FB
:10021C001F4A7B6813441B78002B1DD11E4A7B6838
:10022C0032F813304FF6FF72934209D01A4A7B68AA
:10023C0032F81330013399B2174A7B6822F8131045
:10024C00154A7B6832F81330642B0FD1134A7B6844
:10025C00134401221A7009E00F4A7B68002122F82E
:10026C0013100E4A7B68134400221A707B6801330A
:10027C007B607B68022B81DD00BF00BF0837BD4669
:10028C0080BD00BF480000204C000020000C014045
:10029C005000002054000020580000206000002076
:1002AC0080B483B000AF0346FB71FB79022B01D9FC
:1002BC0000230BE0FB79084AD35C002B05D0FB79BB
:1002CC00054A0021D154012300E0002318460C37C5
:1002DC00BD4680BC704700BF5400002080B500AF05
:1002EC0000224FF47C51024801F02BF800BF80BD76
:1002FC000008014080B500AF01224FF48071054821
:10030C0001F01FF800224FF4C061024801F019F807
:10031C0000BF80BD0008014080B500AF01224FF442
:10032C000071054801F00DF800224FF4A06102485D
:10033C0001F007F800BF80BD0008014080B500AF98
:10034C0001224FF48061054800F0FBFF00224FF4BE
:10035C004071024800F0F5FF00BF80BD000801406D
:10036C0080B500AF01224FF40061054800F0E9FFB1
:10037C0000224FF44051024800F0E3FF00BF80BD63
:10038C000008014080B500AF01224FF480510548B0
:10039C0000F0D7FF00224FF42051024800F0D1FFAB
:1003AC0000BF80BD0008014080B500AF01224FF4B2
:1003BC000051054800F0C5FF00224FF4C05102481F
:1003CC0000F0BFFF00BF80BD0008014080B400AF4B
:1003DC00354B1B68022B0ED1344B1B68642202FB7D
:1003EC0003F3334A1360334B1B68642202FB03F3A1
:1003FC00314A136053E02C4B1B68032B1CD12F4B41
:10040C001B68642202FB03F3294A1360294B1A6808
:10041C00264B1B68D31A642202FB03F3264A136093
:10042C00254B1B68002B3ADA244B1B68642202FB19
:10043C0003F3214A136032E01B4B1B68002B0ED1D7
:10044C001C4B1B68642202FB03F3194A1360174B05
:10045C001B68642202FB03F3174A13601FE0124B64
:10046C001B68012B1BD1154B1B68642202FB03F389
:10047C00114A13600F4B1A680C4B1B68D31A642279
:10048C0002FB03F30A4A1360094B1B68002B06DAC4
:10049C000A4B1B68642202FB03F3054A136000BF7E
:1004AC00BD4680BC704700BF000000206C000020DF
:1004BC003400002070000020380000207400002060
:1004CC0080B584B000AF0346FB710023FB6016E0DF
:1004DC000122FB6802FA03F399B2FB790C4AD35C54
:1004EC001A46FB6842FA03F3DBB203F00103DBB2FA
:1004FC001A46084800F025FFFB680133FB60FB68D7
:10050C00072BE5DD00BF00BF1037BD4680BD00BF27
:10051C00A81B0008000C014080B582B000AF7860C9
:10052C0001220F21204800F00CFF7B68032B37D8E9
:10053C0001A252F823F000BF550500086B05000816
:10054C00810500089705000800220121164800F0DB
:10055C00F8FE164B1B781846FFF7B2FF20E000227E
:10056C000221114800F0EDFE104B5B781846FFF7A6
:10057C00A7FF15E0002204210B4800F0E2FE0B4B14
:10058C009B781846FFF79CFF0AE0002208210648DA
:10059C0000F0D7FE054BDB781846FFF791FF00BF44
:1005AC0000BF0837BD4680BD000801404400002054
:1005BC0080B483B000AF354B1B686333344A82FB85
:1005CC0003125211DB17D31A7B60324B1B68633357
:1005DC002F4A82FB03125211DB17D31A3B607B6844
:1005EC00002B01DA00237B603B68002B01DA00232F
:1005FC003B607B68284A82FB03129210DB17D21AED
:10060C00254B83FB02139910D317C91A0B469B0079
:10061C000B445B00D11ACAB2204B1A707A681E4B7D
:10062C0083FB02139910D317C91A0B469B000B447A
:10063C005B00D11ACAB2194B5A703B68164A82FB3E
:10064C0003129210DB17D21A134B83FB021399106F
:10065C00D317C91A0B469B000B445B00D11ACAB2C4
:10066C000E4B9A703A680C4B83FB02139910D317FC
:10067C00C91A0B469B000B445B00D11ACAB2074B3C
:10068C00DA7000BF0C37BD4680BC704734000020C8
:10069C001F85EB5138000020676666664400002019
:1006AC0080B584B000AF00F075FB00F05BFA00F091
:1006BC008BFA9C4B02221A60FFF788FE00F0C2FBFB
:1006CC00F860994B1B68002B10D1984B1B68002BC2
:1006DC000CD1974B1B68002B08D1934B05221A6049
:1006EC00924B02221A60924B03221A6000F0AAFB72
:1006FC0078607A68FB68D31A092BF7D9FB680A3340
:10070C00FB60FFF735FDFFF71BFD8A4B1B68012BC8
:10071C0040F08780884B1B68012B04D0FFF7DEFD6F
:10072C00854B01221A60854B1B68002B04DD834B23
:10073C001B68013B814A1360814B1B68002B04DD55
:10074C007F4B1B68013B7E4A1360764B1B68032B67
:10075C0064D801A252F823F0CF070008F50700086F
:10076C00750700089B070008744B1B68002B09DCFD
:10077C006C4B03221A606D4B1B68642202FB03F363
:10078C006E4A1360FFF7DAFDFFF7EAFD46E06B4BAC
:10079C001B68002B10DC634B00221A60624B1B6839
:1007AC00642202FB03F3654A1360614B1B686422ED
:1007BC0002FB03F3624A1360FFF7AEFDFFF7D0FDB7
:1007CC002CE05F4B1B68002B09DC564B01221A6096
:1007DC00564B1B68642202FB03F3594A1360FFF764
:1007EC0089FDFFF7E1FD19E0554B1B68002B10DC70
:1007FC004C4B02221A604E4B1B68642202FB03F323
:10080C004E4A1360484B1B68642202FB03F34C4AAC
:10081C001360FFF76FFDFFF7B5FD00BFFFF7C8FED4
:10082C0066E1484B1B680A33464A1360454B1B680C
:10083C00B3F5FA7F0CDB434B00221A60424B1B686A
:10084C00002B0CBF01230023DBB21A463E4B1A606F
:10085C00394B1A68374B1B689A4205D0FFF73EFD9F
:10086C00344B1B68344A1360324B1B68022B09D182
:10087C00354B1B68DBB21A464FF41061334800F05D
:10088C0060FD1AE02B4B1B68032B09D12E4B1B6808
:10089C00DBB21A464FF490512C4800F052FD0CE09C
:1008AC00244B1B68042B08D1274B1B68DBB21A4660
:1008BC004FF41051254800F044FD0120FFF7F0FCE7
:1008CC000346002B5CD01B4B1B68022B12D1164B22
:1008DC001A681F4B83FB021313449911D317C91ABF
:1008EC000B465B000B4459010B44D11A4B1C0E4AAE
:1008FC00136045E00F4B1B68032B2BD10B4B1A6875
:10090C00134B83FB021313449911D317C91A0B46CB
:10091C005B000B4459010B44D11A4B1C034A136066
:10092C002EE000BF000000207000002074000020AA
:10093C006C0000200400002008000020340000207F
:10094C00380000203C00002040000020000801403E
:10095C0003B57EA5764B1B68042B11D1754B1A6819
:10096C00754B83FB021313449911D317C91A0B4609
:10097C005B000B4459010B44D11A4B1C6D4A13609C
:10098C000220FFF78DFC0346002B6CD0684B012234
:10099C001A60FFF7A3FC694B1B68022B15D1684B3F
:1009AC0000221A60674B1B68642202FB03F3664A41
:1009BC001360604B1B68642202FB03F3634A1360F1
:1009CC00FFF798FCFFF7F0FC48E05C4B1B68032B2F
:1009DC0015D15B4B03221A605D4B1B68642202FB32
:1009EC0003F3594A1360574B1B68642202FB03F351
:1009FC00564A1360FFF790FCFFF7B2FC2EE04F4B0A
:100A0C001B68042B15D14E4B02221A60494B1B68F4
:100A1C00642202FB03F34C4A13604A4B1B686422AA
:100A2C0002FB03F3494A1360FFF788FCFFF798FCBD
:100A3C0014E0434B02221A603E4B1B68642202FBFB
:100A4C0003F3414A13603F4B1B68642202FB03F320
:100A5C003E4A1360FFF772FCFFF782FCFFF7A8FD1C
:100A6C00364B01221A600023BB60314B1B68022BF2
:100A7C0003D1344B1B68BB600EE02D4B1B68032B62
:100A8C0003D1334B1B68BB6006E0294B1B68042B5E
:100A9C0002D1284B1B68BB602E4B00221A70244BD2
:100AAC001B68DAB22B4B5A70BB682B4A82FB0312C1
:100ABC009210DB17D21A284B83FB02139910D31711
:100ACC00C91A0B469B000B445B00D11ACAB2214BCE
:100ADC009A70BA68204B83FB02139910D317C91A6A
:100AEC000B469B000B445B00D11ACAB2194BDA704F
:100AFC001A4B1B680133194A1360184B1B68182BCF
:100B0C007FF7F4AD154B00221A60154B1B680133AF
:100B1C005A4203F0030302F0030258BF5342104A37
:100B2C0013600F4B1B681846FFF7F6FCDEE500BFA1
:100B3C00040000206C00002003B57EA508000020F6
:100B4C00000000207000002034000020380000203D
:100B5C007400002044000020676666666400002074
:100B6C006800002080B590B000AF07F11803282270
:100B7C000021184600F0FEFF3B1D00221A605A604F
:100B8C009A60DA601A610223BB610123BB621023F5
:100B9C00FB6200237B6307F11803184600F0EAFBA5
:100BAC000F237B600023BB600023FB6000233B61B1
:100BBC0000237B613B1D0021184600F05BFE00BF4B
:100BCC004037BD4680BD000080B586B000AF07F150
:100BDC00080300221A605A609A60DA60274B9B69FE
:100BEC00264A43F008039361244B9B6903F00803E6
:100BFC007B607B68214B9B69204A43F00403936123
:100C0C001E4B9B6903F004033B603B680122FF21F0
:100C1C001B4800F096FBFF23BB600123FB60002305
:100C2C003B6102237B6107F108031946144800F06D
:100C3C00F7F900224FF47C51124800F082FB01229C
:100C4C000F21104800F07DFB43F60F73BB6007F1DA
:100C5C00080319460B4800F0E3F94FF46043BB60FE
:100C6C000023FB6001233B6107F10803194604488C
:100C7C0000F0D6F900BF1837BD4680BD0010024009
:100C8C00000C01400008014080B485B000AF154B4A
:100C9C009B69144A43F001039361124B9B6903F067
:100CAC000103BB60BB680F4BDB690E4A43F08053FA
:100CBC00D3610C4BDB6903F080537B607B680A4B80
:100CCC005B68FB60FB6823F0E063FB60FB6843F050
:100CDC008063FB60044AFB68536000BF1437BD4659
:100CEC0080BC7047001002400000014080B400AF8F
:100CFC00FEE780B400AFFEE780B400AFFEE780B43F
:100D0C0000AFFEE780B400AFFEE780B400AF00BFD9
:100D1C00BD4680BC704780B400AF00BFBD4680BCF0
:100D2C00704780B400AF00BFBD4680BC704780B533
:100D3C0000AF00F075F800BF80BD80B400AF00BFFD
:100D4C00BD4680BC70470000FFF7F7FF0B480C490D
:100D5C000C4A002302E0D458C4500433C4188C420B
:100D6C00F9D3094A094C002301E013600432A24272
:100D7C00FBD300F0DBFEFFF793FC70470000002074
:100D8C0018000020E01B0008180000207C00002048
:100D9C00FEE7000080B500AF084B1B68074A43F024
:100DAC0010031360032000F007F90F2000F008F87F
:100DBC00FFF76AFF0023184680BD00BF00200240E9
:100DCC0080B582B000AF7860124B1A68124B1B785A
:100DDC0019464FF47A73B3FBF1F3B2FBF3F31846F5
:100DEC0000F011F90346002B01D001230EE07B68C3
:100DFC000F2B0AD8002279684FF0FF3000F0E7F88B
:100E0C00064A7B681360002300E00123184608376C
:100E1C00BD4680BD0C0000201400002010000020F6
:100E2C0080B400AF054B1B781A46054B1B68134466
:100E3C00034A136000BFBD4680BC704714000020FD
:100E4C007800002080B400AF024B1B681846BD46EA
:100E5C0080BC70477800002080B485B000AF78600B
:100E6C007B6803F00703FB600C4BDB68BB60BA6864
:100E7C004FF6FF031340BB60FB681A02BB681343B9
:100E8C0043F0BF6343F40033BB60044ABB68D360D8
:100E9C0000BF1437BD4680BC704700BF00ED00E0BA
:100EAC0080B400AF044BDB681B0A03F00703184641
:100EBC00BD4680BC704700BF00ED00E080B483B03D
:100ECC0000AF03463960FB7197F90730002B0ADB42
:100EDC003B68DAB20C4997F907301201D2B20B44D5
:100EEC0083F800230AE03B68DAB20849FB7903F087
:100EFC000F03043B1201D2B20B441A7600BF0C371D
:100F0C00BD4680BC704700BF00E100E000ED00E092
:100F1C0080B489B000AFF860B9607A60FB6803F008
:100F2C000703FB61FB69C3F10703042B28BF0423F0
:100F3C00BB61FB690433062B02D9FB69033B00E060
:100F4C0000237B614FF0FF32BB6902FA03F3DA43F3
:100F5C00BB681A407B699A404FF0FF317B6901FAFC
:100F6C0003F3D9437B680B40134318462437BD4623
:100F7C0080BC704780B582B000AF78607B68013B65
:100F8C00B3F1807F01D301230FE00A4A7B68013B58
:100F9C0053600F214FF0FF30FFF790FF054B0022FD
:100FAC009A60044B07221A60002318460837BD4686
:100FBC0080BD00BF10E000E080B582B000AF78606B
:100FCC007868FFF749FF00BF0837BD4680BD80B584
:100FDC0086B000AF0346B9607A60FB7300237B6177
:100FEC00FFF75EFF78617A68B9687869FFF790FF60
:100FFC00024697F90F3011461846FFF75FFF00BF06
:10100C001837BD4680BD80B582B000AF7860786877
:10101C00FFF7B0FF034618460837BD4680BD0000F9
:10102C0080B48BB000AF7860396000237B62002302
:10103C003B6248E101227B6A02FA03F3FB613B68E5
:10104C001B68FA691340BB61BA69FB699A4240F0AC
:10105C0037813B685B68A34A93425ED0A14A9342B6
:10106C0075D8A14A934258D09F4A93426FD89F4A51
:10107C00934252D09D4A934269D89D4A93424CD098
:10108C009B4A934263D89B4A934246D0994A9342D7
:10109C005DD8122B2AD8122B59D801A252F823F062
:1010AC002711000801110008131100085511000840
:1010BC005B1100085B1100085B1100085B11000854
:1010CC005B1100085B1100085B1100085B11000844
:1010DC005B1100085B1100085B1100085B11000834
:1010EC005B110008091100081D110008824A934287
:1010FC0013D02CE03B68DB683B6229E03B68DB6883
:10110C0004333B6224E03B68DB6808333B621FE03E
:10111C003B68DB680C333B621AE03B689B68002B36
:10112C0002D104233B6213E03B689B68012B05D181
:10113C0008233B627B68FA691A6109E008233B6269
:10114C007B68FA695A6103E000233B6200E000BF50
:10115C00BB69FF2B01D87B6801E07B6804337B61A2
:10116C00BB69FF2B02D87B6A9B0002E07B6A083BC1
:10117C009B003B617B691A680F213B6901FA03F301
:10118C00DB431A40396A3B6901FA03F31A437B6962
:10119C001A603B685B6803F08053002B00F0908072
:1011AC00564B9B69554A43F001039361534B9B6922
:1011BC0003F00103BB60BB68514A7B6A9B08023396
:1011CC0052F82330FB607B6A03F003039B000F2271
:1011DC0002FA03F3DB43FA681340FB607B68494A6D
:1011EC0093420DD07B68484A934207D07B68474AAC
:1011FC00934201D1022304E0032302E0012300E027
:10120C0000237A6A02F0030292009340FA681343B7
:10121C00FB603B497B6A9B080233FA6841F8232048
:10122C003B685B6803F48013002B06D0384B9A683C
:10123C003749BB6913438B6006E0354B9A68BB6931
:10124C00DB43334913408B603B685B6803F400134A
:10125C00002B06D02E4BDA682D49BB691343CB60AB
:10126C0006E02B4BDA68BB69DB4329491340CB60A2
:10127C003B685B6803F40033002B06D0244B5A68A0
:10128C002349BB6913434B6006E0214B5A68BB6989
:10129C00DB431F4913404B603B685B6803F48033AE
:1012AC00002B06D01A4B1A681949BB6913430B6003
:1012BC0006E0174B1A68BB69DB43154913400B60FA
:1012CC007B6A01337B623B681A687B6A22FA03F300
:1012DC00002B7FF4AFAE00BF00BF2C37BD4680BCE7
:1012EC00704700BF000032100000311000002210C7
:1012FC00000021100000121000001110001002401C
:10130C000000014000080140000C014000100140A9
:10131C000004014080B485B000AF78600B467B8040
:10132C007B689A687B881340002B02D00123FB73E7
:10133C0001E00023FB73FB7B18461437BD4680BCD1
:10134C00704780B483B000AF78600B467B80134647
:10135C007B707B78002B03D07A887B681A6103E062
:10136C007B881A047B681A6100BF0C37BD4680BCB1
:10137C007047000080B586B000AF78607B68002BAA
:10138C0001D101236CE27B681B6803F00103002B85
:10139C0000F08780924B5B6803F00C03042B0CD09D
:1013AC008F4B5B6803F00C03082B12D18C4B5B68E2
:1013BC0003F48033B3F5803F0BD1894B1B6803F4E6
:1013CC000033002B6CD07B685B68002B68D1012349
:1013DC0046E27B685B68B3F5803F06D1804B1B68A7
:1013EC007F4A43F4803313602EE07B685B68002BEC
:1013FC000CD17B4B1B687A4A23F480331360784BF7
:10140C001B68774A23F4802313601DE07B685B68BC
:10141C00B3F5A02F0CD1724B1B68714A43F4802397
:10142C0013606F4B1B686E4A43F4803313600BE000
:10143C006B4B1B686A4A23F480331360684B1B6840
:10144C00674A23F4802313607B685B68002B13D0FE
:10145C00FFF7F8FC386108E0FFF7F4FC02463B6943
:10146C00D31A642B01D90323FAE15D4B1B6803F4F7
:10147C000033002BF0D014E0FFF7E4FC386108E0F7
:10148C00FFF7E0FC02463B69D31A642B01D9032316
:10149C00E6E1534B1B6803F40033002BF0D100E062
:1014AC0000BF7B681B6803F00203002B63D04C4B1E
:1014BC005B6803F00C03002B0BD0494B5B6803F00B
:1014CC000C03082B1CD1464B5B6803F48033002BB8
:1014DC0016D1434B1B6803F00203002B05D07B682D
:1014EC001B69012B01D00123BAE13D4B1B6823F092
:1014FC00F8027B685B69DB00394913430B603AE007
:10150C007B681B69002B20D0364B01221A60FFF739
:10151C0099FC386108E0FFF795FC02463B69D31A49
:10152C00022B01D903239BE12D4B1B6803F0020313
:10153C00002BF0D02A4B1B6823F0F8027B685B6908
:10154C00DB00274913430B6015E0264B00221A6081
:10155C00FFF778FC386108E0FFF774FC02463B6942
:10156C00D31A022B01D903237AE11D4B1B6803F01C
:10157C000203002BF0D17B681B6803F00803002BDF
:10158C003AD07B689B69002B19D0174B01221A604B
:10159C00FFF758FC386108E0FFF754FC02463B6942
:1015AC00D31A022B01D903235AE10D4B5B6A03F0CA
:1015BC000203002BF0D0012000F09AFA1CE00A4B39
:1015CC0000221A60FFF73EFC38610FE0FFF73AFC8F
:1015DC0002463B69D31A022B08D9032340E100BF12
:1015EC000010024000004242800442429E4B5B6A63
:1015FC0003F00203002BE9D17B681B6803F00403A2
:10160C00002B00F0A6800023FB75974BDB6903F0E1
:10161C008053002B0DD1944BDB69934A43F08053DC
:10162C00D361914BDB6903F08053BB60BB68012332
:10163C00FB758E4B1B6803F48073002B18D18B4BFE
:10164C001B688A4A43F480731360FFF7FBFB386115
:10165C0008E0FFF7F7FB02463B69D31A642B01D96C
:10166C000323FDE0814B1B6803F48073002BF0D047
:10167C007B68DB68012B06D17B4B1B6A7A4A43F0F3
:10168C00010313622DE07B68DB68002B0CD1764BD9
:10169C001B6A754A23F001031362734B1B6A724A6F
:1016AC0023F0040313621CE07B68DB68052B0CD170
:1016BC006D4B1B6A6C4A43F0040313626A4B1B6A42
:1016CC00694A43F0010313620BE0674B1B6A664ADD
:1016DC0023F001031362644B1B6A634A23F0040377
:1016EC0013627B68DB68002B15D0FFF7ABFB38610E
:1016FC000AE0FFF7A7FB02463B69D31A41F2883296
:10170C00934201D90323ABE0574B1B6A03F002034E
:10171C00002BEED014E0FFF795FB38610AE0FFF7E1
:10172C0091FB02463B69D31A41F28832934201D9AC
:10173C00032395E04C4B1B6A03F00203002BEED104
:10174C00FB7D012B05D1484BDB69474A23F08053C5
:10175C00D3617B68DB69002B00F08180424B5B68B6
:10176C0003F00C03082B61D07B68DB69022B46D19C
:10177C003F4B00221A60FFF765FB386108E0FFF76A
:10178C0061FB02463B69D31A022B01D9032367E0A4
:10179C00354B1B6803F00073002BF0D17B681B6A80
:1017AC00B3F5803F08D1304B5B6823F400327B6883
:1017BC009B682D4913434B602B4B5B6823F47412CD
:1017CC007B68196A7B685B6A0B43274913434B6040
:1017DC00274B01221A60FFF735FB386108E0FFF751
:1017EC0031FB02463B69D31A022B01D9032337E0A4
:1017FC001D4B1B6803F00073002BF0D02FE01C4B2B
:10180C0000221A60FFF71EFB386108E0FFF71AFB95
:10181C0002463B69D31A022B01D9032320E0124B59
:10182C001B6803F00073002BF0D118E07B68DB69B8
:10183C00012B01D1012313E00B4B5B68FB60FB68B0
:10184C0003F480327B681B6A9A4206D1FB6803F46E
:10185C0070127B685B6A9A4201D0012300E000237E
:10186C0018461837BD4680BD00100240007000407D
:10187C006000424280B584B000AF786039607B680C
:10188C00002B01D10123D0E06A4B1B6803F0070346
:10189C003A689A4210D9674B1B6823F007026549D6
:1018AC003B6813430B60634B1B6803F007033A68F8
:1018BC009A4201D00123B8E07B681B6803F0020355
:1018CC00002B20D07B681B6803F00403002B05D091
:1018DC00594B5B68584A43F4E06353607B681B6860
:1018EC0003F00803002B05D0534B5B68524A43F4BA
:1018FC0060535360504B5B6823F0F0027B689B682D
:10190C004D4913434B607B681B6803F00103002BAC
:10191C0040D07B685B68012B07D1474B1B6803F4F5
:10192C000033002B15D101237FE07B685B68022B11
:10193C0007D1414B1B6803F00073002B09D1012325
:10194C0073E03D4B1B6803F00203002B01D1012314
:10195C006BE0394B5B6823F003027B685B683649AC
:10196C0013434B60FFF76EFAF8600AE0FFF76AFA70
:10197C000246FB68D31A41F28832934201D9032301
:10198C0053E02D4B5B6803F00C027B685B689B009B
:10199C009A42EBD1274B1B6803F007033A689A4233
:1019AC0010D2244B1B6823F0070222493B681343D7
:1019BC000B60204B1B6803F007033A689A4201D076
:1019CC00012332E07B681B6803F00403002B08D072
:1019DC00194B5B6823F4E0627B68DB6816491343A0
:1019EC004B607B681B6803F00803002B09D0124B7B
:1019FC005B6823F460527B681B69DB000E49134360
:101A0C004B6000F021F802460B4B5B681B0903F09E
:101A1C000F030A49CB5C22FA03F3094A1360094B02
:101A2C001B681846FFF7CCF9002318461037BD4643
:101A3C0080BD00BF0020024000100240B41B000813
:101A4C000C0000201000002080B487B000AF0023F1
:101A5C00FB600023BB6000237B6100237B600023C1
:101A6C003B611E4B5B68FB60FB6803F00C03042BB3
:101A7C0002D0082B03D027E0194B3B6127E0FB6811
:101A8C009B0C03F00F03174AD35C7B60FB6803F4D9
:101A9C008033002B10D0114B5B685B0C03F00103FF
:101AAC00114AD35CBB607B680D4A02FB03F2BB6836
:101ABC00B2FBF3F37B6104E07B680C4A02FB03F39B
:101ACC007B617B693B6102E0054B3B6100BF3B697D
:101ADC0018461C37BD4680BC704700BF0010024042
:101AEC0000127A00C41B0008D41B000800093D003A
:101AFC0080B485B000AF78600A4B1B680A4AA2FB21
:101B0C0003235B0A7A6802FB03F3FB6000BFFB68EC
:101B1C005A1EFA60002BF9D100BF00BF1437BD4626
:101B2C0080BC70470C000020D34D621070B50026AD
:101B3C000C4D0D4C641BA410A64209D100F022F8E8
:101B4C0000260A4D0A4C641BA410A64205D170BD98
:101B5C0055F8043B98470136EEE755F8043B984797
:101B6C000136F2E7D81B0008D81B0008D81B000868
:101B7C00DC1B000803460244934200D1704703F873
:101B8C00011BF9E7F8B500BFF8BC08BC9E467047CE
:0C1B9C00F8B500BFF8BC08BC9E467047BE
:101BA800C0F9A4B0999282F880900000000000006B
:101BB80000000000010203040607080902030405E7
:101BC800060708090A0B0C0D0E0F10100102000081
:041BD80031010008CF
:041BDC000D010008EF
:101BE00002000000010000000100000000127A0065
:081BF0001000000001000000DC
:0400000508000D558D
:00000001FF
